:100000000C9472000C9493000C9493000C94930045
:100010000C9493000C94E2020C94BD020C94930097
:100020000C9493000C9493000C9493000C94930004
:100030000C9493000C9493000C9493000C949300F4
:100040000C9493000C9493000C9493000C949300E4
:100050000C9493000C9493000C9493000C949300D4
:100060000C9493000C9493000C9493000C949300C4
:100070000C9493000C9493000C9493000C949300B4
:100080000C9493000C9493000C9493000C949300A4
:100090000C9493000C9493000C9493000C94930094
:1000A0000C9493000C9493000C9493000C94930084
:1000B0000C9493000C9493000C9493000C94930074
:1000C0000C9493000C9493000C9493000C941104E2
:1000D0000C9493000C9493000C9493000C94930054
:1000E0000C94930011241FBECFEFD1E2DEBFCDBF31
:1000F00000E00CBF12E0A0E0B2E0ECE5F0E100E0CF
:100100000BBF02C007900D92A030B107D9F712E0E3
:10011000A0E0B2E001C01D92AB38B107E1F70E9448
:100120008C060C942C080C94000087B1876F87B95B
:1001300088B1807888B9089586E69EE00197F1F746
:1001400000004098419880E388B9429AEFEFF7E4C5
:100150003197F1F700C000004298E6E6FEE03197E3
:10016000F1F700004098419888B9429AEFEFF7E420
:100170003197F1F700C000004298E6E6FEE03197C3
:10018000F1F700004098419888B9429A8FEF97E4C0
:100190000197F1F700C000004298E6E6FEE03197D3
:1001A000F1F700004098419880E288B9429A86E6CB
:1001B0009EE00197F1F700004298089598B19F7072
:1001C00098B998B1282F207F922B98B940984198E0
:1001D000429AEFEFF7E43197F1F700C00000429840
:1001E00098B19F7098B998B18295807F892B88B912
:1001F00040984198429A8FEF97E40197F1F700C039
:1002000000004298089586E69EE00197F1F700000D
:1002100088E20E94DE0081E00E94DE0086E00E940B
:10022000DE008EE00E94DE0080E80E94DE0008957D
:1002300098B19F7098B998B1282F207F922B98B9C8
:10024000409A4198429AEFEFF7E43197F1F700C0F6
:100250000000429898B19F7098B998B18295807FBC
:10026000892B88B9409A4198429A8FEF97E4019779
:10027000F1F700C000004298089580E80E94DE0077
:100280000895CF93DF93EC018881882331F0219684
:100290000E94180189918823D9F7DF91CF910895A1
:1002A000823079F0833018F48130C9F405C083308E
:1002B00069F08430A1F40FC0862F81580E94DE00BF
:1002C0000895862F81540E94DE000895862F8D5652
:1002D0000E94DE000895862F8D520E94DE00089550
:1002E0000F931F93CF93DF938A01E901882311F0C5
:1002F000662319F40E943D0102C00E945001C530DE
:10030000D10571F4C80160E177E20E941808CB01C1
:10031000C09690935202809351020E94180103C02C
:10032000C430D105B9F4C80168EE73E00E94180822
:10033000CB0170935602609355026AE070E00E9410
:100340001808C09690938902809388020E94180131
:1003500081E001C080E0C330D10511F08130B1F4FB
:10036000C80164E670E00E941808CB017093560241
:10037000609355026AE070E00E941808C09690935E
:100380008402809383020E94180181E0C230D1056B
:1003900011F08130B1F42AE030E0C801B9010E94C7
:1003A0001808CB017093560260935502B9010E9460
:1003B0001808C09690935802809357020E94180123
:1003C00081E0C130D10511F0813061F4C8016AE0EB
:1003D00070E00E941808C09690938702809386026E
:1003E0000E941801C630D1051CF085E40E94180156
:1003F000DF91CF911F910F9108953B9A43980895F3
:1004000081B18F6081B982B1807F82B9EAE0F1E089
:10041000808188618083EBE0F1E080818861808366
:1004200008956C98749A08956D98759A089510BA05
:1004300011BA10920701109208010895259A2D9A79
:100440000895269A2E9A0895279A2F9A08958FEF45
:100450008093040110920501089584B1876084B9E6
:1004600085B1876085B908950E9495000E940002B9
:100470000E94FD010E9411020E9414020E941702B4
:100480000E941E020E9421020E9424020E94270252
:100490000E942D020895E1EDF0E010821092D0004C
:1004A00086E08093D2008FE58093D4001092D5002F
:1004B00088E980830895EAE7F0E0108210927B00DB
:1004C00080E280937C0080E880BF86E88083089586
:1004D000E1E2F1E010828FEF8093250191E09093AB
:1004E0002401109229018093280110922B018093FE
:1004F0002A0110922D0180932C0189EA809320011A
:100500008BE080830895E1E8F0E010828CEF809327
:10051000850081E08093840093E0909389008FEFC1
:100520008093880090938B0080938A0090938D0035
:1005300080938C0090938700809386008BEA809351
:100540008000109282008CE080830895F894EAE69F
:10055000F0E0808182608083EC9A78940895F8942A
:10056000EAE6F0E0808188608083ED9A78940895CF
:1005700083E58CBD1DBC1EBC08951F920F920FB663
:100580000F9211248F939F93AF93BF938091020298
:1005900090910302A0910402B09105020196A11D61
:1005A000B11D8093020290930302A0930402B093C2
:1005B0000502BF91AF919F918F910F900FBE0F9049
:1005C0001F9018951F920F920FB60F9211248F93C0
:1005D0009F93AF93BF938091060290910702A091E1
:1005E0000802B09109020196A11DB11D8093060277
:1005F00090930702A0930802B0930902BF91AF91B4
:100600009F918F910F900FBE0F901F901895F894A7
:100610000E9434020E944B020E945B020E94680208
:100620000E94A6020E94AF020E9483020E94B802AA
:1006300078940895883018F098E090937B00877044
:10064000806280937C0010924E02EAE7F0E08081A5
:1006500080648083808184FFFDCF80917900EAE708
:10066000F0E090819061908310927B0008958093D8
:10067000280160932A010895EBE0F1E08081826116
:1006800080830895439A08954398089586E082B937
:10069000089589E082B9089585E082B908958AE0D5
:1006A00082B9089512B80895BC0180E090E00E94DC
:1006B0008A0725EE30ED4AEA50E40E94F6060E94D1
:1006C0005E07462F572F682F792F10920202109243
:1006D000030210920402109205028091020290918E
:1006E0000302A0910402B0910502481759076A0756
:1006F0007B0798F70E9452030895CF93DF93EC0194
:100700000E944603CE010E945403DF91CF910895C9
:10071000CF93DF93EC010E944903CE010E94540362
:10072000DF91CF91089510928900682F70E080E0EA
:1007300090E00E948A072BE734E14EEE5FE30E94CF
:10074000F60620E030E04CE052E40E9492060E945F
:100750005E0760938800089510928B00682F70E008
:1007600080E090E00E948A072BE734E14EEE5FE3E1
:100770000E94F60620E030E04CE052E40E9492062F
:100780000E945E0760938A00089510928D00682F82
:1007900070E080E090E00E948A072BE734E14EEEA3
:1007A0005FE30E94F60620E030E04CE052E40E9455
:1007B00092060E945E0760938C00089583E0809308
:1007C00089008FEF80938800089583E080938B00E9
:1007D0008FEF80938A00089583E080938D008FEFE0
:1007E00080938C000895E5E0F1E09081892B80836F
:1007F0000895E5E0F1E090818923808308952898A9
:100800008EBD0DB407FEFDCF86E69EE00197F1F7A1
:10081000000080E58EBD0DB407FEFDCF8EB5289A91
:1008200008951F920F920FB60F920BB60F921124DC
:100830002F933F938F939F93AF93BF93CF93DF9368
:10084000EF93FF939091D60090934B02E0EDF0E090
:1008500080818823E9F380911502882309F04AC03A
:100860009A3071F480911702E2E3F2E0E80FF11D93
:1008700090838F5F8093170281E0809318023AC0C3
:1008800080911802813061F59D30A1F52091170209
:10089000E2E3F2E0E20FF11D8DE08083322F3F5F53
:1008A0003093170282E08093180281E08093150252
:1008B000109216023323F1F0E9E1F2E0CAE6D2E049
:1008C000A2E3B2E0CF010196820F911D2C912193FA
:1008D00029931D92E817F907C9F7309316020AC049
:1008E00080911702E2E3F2E0E80FF11D90838F5F41
:1008F00080931702FF91EF91DF91CF91BF91AF915C
:100900009F918F913F912F910F900BBE0F900FBE33
:100910000F901F90189580911302882309F06AC0E8
:1009200080911102882329F40E941A038093D60033
:1009300061C0813029F40E941A038093D6005AC006
:10094000823029F40E941A038093D60053C083306A
:1009500029F40E941A038093D6004CC0843029F4F5
:100960000E941A038093D60045C0853029F40E9466
:100970001A038093D6003EC0863029F40E941A03E1
:100980008093D60037C0873029F40E941A038093E1
:10099000D60030C0883029F40E941A038093D60014
:1009A00029C0893029F40E941A038093D60022C0FE
:1009B0008A3029F40E941A038093D6001BC08B3022
:1009C00029F40E941A038093D60014C08C3029F4B5
:1009D0000E941A038093D6000DC08D3029F40E9426
:1009E0001A038093D60006C08E3021F40E941A03A9
:1009F0008093D600809113028130C9F58091110255
:100A0000882329F40E94FF038093D6000895813043
:100A100029F40E94FF038093D6000895823029F4C0
:100A20000E94FF038093D6000895833029F40E942A
:100A3000FF038093D6000895843029F40E94FF03B9
:100A40008093D6000895853029F40E94FF03809397
:100A5000D6000895863029F40E94FF038093D600C3
:100A60000895873021F40E94FF038093D6000895F3
:100A70000F931F93CF93DF9380911302813059F42A
:100A800080911102882319F40E94420304C081302E
:100A900011F40E94440380911302823079F5809111
:100AA0001102882329F40E943C030E94460326C0B9
:100AB000813029F40E943C030E9449031FC0823008
:100AC00029F40E943C030E944F0318C0833029F48C
:100AD0000E943C030E944C0311C0843029F40E9400
:100AE0003C030E9452030AC0893041F40E9446032D
:100AF00080915A0260915B020E9437038091130239
:100B0000833091F480911102882329F480915A0254
:100B100090E00E947D0380911102813029F4809140
:100B20005A0290E00E94880380911302843051F5AC
:100B300080911102882321F480915A020E9493032C
:100B400080911102813021F480915A020E94AC03FD
:100B500080911102823021F480915A020E94C503D3
:100B600080911102833011F40E94DE038091110202
:100B7000843011F40E94E50380911102853011F454
:100B80000E94EC0380911302853081F48091110260
:100B9000882321F480915A020E94F303809111026C
:100BA000813021F480915A020E94F903809113024E
:100BB000863009F048C0809111028823E1F40E9438
:100BC0009C000E94030181E061E00E94500180913D
:100BD0008502882381F00AE512E0C0E0D0E0F80148
:100BE00081918F010E94180121968091850290E0E9
:100BF000C817D907A4F3809111028130E1F40E9453
:100C00009C000E94030182E061E00E9450018091FB
:100C10008502882381F00AE512E0C0E0D0E0F80107
:100C200081918F010E94180121968091850290E0A8
:100C3000C817D907A4F380911102823021F40E94D1
:100C40009C000E940301DF91CF911F910F910895A5
:100C500080911402813009F03FC080911902809385
:100C6000130280911A028093120280911B028093DA
:100C7000110280911C0280931002982F9071909322
:100C80005402282F2F702093850284FD05C030E088
:100C90001216130694F01DC020911D0220938A02A3
:100CA00030911E0230935302932F80E0820F911DEA
:100CB00090930F0280930E020CC0EDE1F2E0AAE5E2
:100CC000B2E081E090E041914D93019628173907F9
:100CD000D4F71092140202C0882361F480911202AA
:100CE000882331F40E948B0408950E9438050895EA
:100CF0008130D9F3089580911502813061F410920A
:100D00001702109216021092150210921802809388
:100D100014020E94280608950E9407030E947B0681
:100D2000FDCF5058BB27AA270ED048C139D130F08B
:100D30003ED120F031F49F3F11F41EF42EC10EF489
:100D4000E095E7FB24C1E92F4AD180F3BA17620787
:100D500073078407950718F071F49EF562C10EF4CD
:100D6000E0950B2EBA2FA02D0B01B90190010C01BB
:100D7000CA01A0011124FF27591B99F0593F50F4D3
:100D8000503E68F11A16F040A22F232F342F44272B
:100D9000585FF3CF469537952795A795F040539523
:100DA000C9F77EF41F16BA0B620B730B840BBAF0F3
:100DB0009150A1F0FF0FBB1F661F771F881FC2F75E
:100DC0000EC0BA0F621F731F841F48F48795779572
:100DD0006795B795F7959E3F08F0B3CF9395880F29
:100DE00008F09927EE0F9795879508950CD0E6C0E7
:100DF000DED040F0D5D030F021F45F3F19F0C7C00D
:100E0000511110C1CAC0EBD098F39923C9F35523EF
:100E1000B1F3951B550BBB27AA27621773078407ED
:100E200038F09F5F5F4F220F331F441FAA1FA9F3A3
:100E300033D00E2E3AF0E0E830D091505040E69595
:100E4000001CCAF729D0FE2F27D0660F771F881FF6
:100E5000BB1F261737074807AB07B0E809F0BB0BE5
:100E6000802DBF01FF2793585F4F2AF09E3F510509
:100E700068F08DC0D7C05F3FECF3983EDCF38695F9
:100E800077956795B795F7959F5FC9F7880F911D7F
:100E90009695879597F90895E1E0660F771F881F6B
:100EA000BB1F621773078407BA0720F0621B730B1E
:100EB000840BBA0BEE1F88F7E095089598D088F060
:100EC0009F5790F0B92F9927B751A0F0D1F0660F36
:100ED000771F881F991F1AF0BA95C9F712C0B13051
:100EE00081F09FD0B1E008959CC0672F782F8827AC
:100EF000B85F39F0B93FCCF3869577956795B39590
:100F0000D9F73EF490958095709561957F4F8F4FFE
:100F10009F4F0895E89409C097FB3EF49095809503
:100F2000709561957F4F8F4F9F4F9923A9F0F92FAF
:100F300096E9BB279395F695879577956795B7952D
:100F4000F111F8CFFAF4BB0F11F460FF1BC06F5F13
:100F50007F4F8F4F9F4F16C0882311F096E911C025
:100F6000772321F09EE8872F762F05C0662371F046
:100F700096E8862F70E060E02AF09A95660F771F5A
:100F8000881FDAF7880F9695879597F9089597F94E
:100F90009F6780E870E060E008959FEF80EC08951F
:100FA00000240A9416161706180609060895002448
:100FB0000A9412161306140605060895092E0394C2
:100FC000000C11F4882352F0BB0F40F4BF2B11F436
:100FD00060FF04C06F5F7F4F8F4F9F4F089557FD95
:100FE0009058440F551F59F05F3F71F04795880F97
:100FF00097FB991F61F09F3F79F08795089512162E
:1010000013061406551FF2CF4695F1DF08C01616D9
:1010100017061806991FF1CF86957105610508948A
:101020000895E894BB2766277727CB0197F90895A1
:10103000AA1BBB1B51E107C0AA1FBB1FA617B707FE
:1010400010F0A61BB70B881F991F5A95A9F780951A
:0C1050009095BC01CD010895F894FFCFED
:00000001FF
